:100000000C942A000C9495050C94BF050C94E905FA
:100010000C9447000C9447000C940E070C94BA06FD
:100020000C94E4060C9490060C9466060C943C0622
:100030000C9447000C9447000C9447000C94470024
:100040000C9447000C9447000C9447000C94470014
:100050000C94470011241FBECFE5D8E0DEBFCDBF12
:1000600010E0A0E6B0E0EEE0FFE002C005900D92E7
:10007000A43CB107D9F720E0A4ECB0E001C01D9288
:10008000AA3CB207E1F70E9476030C9485070C9412
:1000900000008091C4009091C500A091C600B0916D
:1000A000C7000196A11DB11D8093C4009093C500A7
:1000B000A093C600B093C7006091C4007091C500C2
:1000C0008091C6009091C70020EA3FE040E050E0F8
:1000D0000E944407672B682B692BE1F48091600034
:1000E00081508093600043E06EE081E00E94D50281
:1000F0006EE081E00E942C026091600070E080E080
:1001000090E00E94470280916000811103C084E169
:10011000809360008091C4009091C500A091C600BA
:10012000B091C70080369A4EA105B10539F480918F
:10013000C900823019F481E08093C9008091C40025
:100140009091C500A091C600B091C7008038984337
:10015000A140B105F9F41092C4001092C5001092AC
:10016000C6001092C7008091C900811106C082E0CC
:100170008093C9000E9423030DC08091C900813083
:1001800039F41092C9001092C8000E94020302C004
:100190008091C90086E082BF089580E10E94EB044F
:1001A00081111CC08091C800811118C00E944403B5
:1001B00080E499E1A1E0B0E08093C4009093C50091
:1001C000A093C600B093C70081E08093C8008093DD
:1001D000C90082E08093600086E082BF08950E949B
:1001E00018050E94AE0162E080E00E9413060E94A2
:1001F000330689E490E00E94370680E00E942B05D8
:1002000062E080E00E943B056DEC70E080E00E94BF
:10021000800561E082E00E9408056BE870E080E004
:100220000E94E70263E870E081E00E94E7026BE76A
:1002300070E082E00E94E70263E770E083E00E94E2
:10024000E7020E94020380E10E9465037894809196
:1002500060000E946B038091C900811105C080E19C
:100260000E94650381E108C08091C900813041F49A
:1002700081E10E94650380E10E94680382E10BC076
:100280008091C900823019F782E10E94650381E103
:100290000E94680380E10E946803D9CFCF93C82FE2
:1002A00060E084E00E946C046C2F661F6627661F66
:1002B00083E00E946C04C6FB662760F982E00E941E
:1002C0006C04C5FB662760F981E00E946C04C4FBE6
:1002D000662760F980E00E946C0461E085E00E947E
:1002E0006C048FEC97E00197F1F700C0000060E02C
:1002F00085E00E946C048FEC97E00197F1F700C055
:100300000000C3FB662760F983E00E946C04C2FB17
:10031000662760F982E00E946C04C1FB662760F9E1
:1003200081E00E946C046C2F617080E00E946C047C
:1003300061E085E00E946C048FEC97E00197F1F793
:1003400000C0000060E085E00E946C048FEC97E044
:100350000197F1F700C00000CF9108952FE788E3DF
:1003600091E0215080409040E1F700C0000082E021
:100370000E944E0188E20E944E018CE00E944E01D4
:1003800081E00E944E018FEC97E00197F1F700C0E9
:10039000000086E00C944E01CF93C82F61E084E00A
:1003A0000E946C046C2F661F6627661F83E00E9404
:1003B0006C04C6FB662760F982E00E946C04C5FBF2
:1003C000662760F981E00E946C04C4FB662760F92F
:1003D00080E00E946C0461E085E00E946C048FEC78
:1003E00097E00197F1F700C0000060E085E00E940F
:1003F0006C048FEC97E00197F1F700C00000C3FB9D
:10040000662760F983E00E946C04C2FB662760F9EE
:1004100082E00E946C04C1FB662760F981E00E94C3
:100420006C046C2F617080E00E946C0461E085E0D8
:100430000E946C048FEC97E00197F1F700C0000078
:1004400060E085E00E946C048FEC97E00197F1F783
:1004500000C00000CF910895811102C080E801C062
:1004600080EC860F0C944E010F931F93CF938C0159
:10047000C0E0F801EC0FF11D8081882321F00E947B
:10048000CC01CF5FF6CFCF911F910F9108954F927E
:100490005F926F927F92AF92BF92CF92DF92EF9274
:1004A000FF921F93CF93DF93CDB7DEB764970FB65C
:1004B000F894DEBF0FBECDBF6B017C0161157105E5
:1004C00081059105B1F480E364960FB6F894DEBF20
:1004D0000FBECDBFDF91CF911F91FF90EF90DF90C6
:1004E000CF90BF90AF907F906F905F904F900C94A3
:1004F000CC0197FF0BC08DE20E94CC01F094E094F8
:10050000D094C094C11CD11CE11CF11C10E09AE0F5
:10051000492E512C612C712CAA24A394B12CAC0E21
:10052000BD1EA10EB11CC701B601A30192010E941C
:100530006607605DF501608381E0810F69017A01E2
:10054000C114D104E104F10411F0182FE5CFF12E0C
:10055000F7FC0DC0E1E0F0E0EC0FFD1FEF0DF11D29
:10056000F7FCFA9580810E94CC01FA94F1CF649651
:100570000FB6F894DEBF0FBECDBFDF91CF911F91B4
:10058000FF90EF90DF90CF90BF90AF907F906F90F3
:100590005F904F90089581E00E944E018FEC97E0AC
:1005A0000197F1F700C000000895CF93DF93D42F97
:1005B0000E942C02C0E0CD1729F080E20E94CC01FD
:1005C000CF5FF9CF80E8DF91CF910C944E010F936C
:1005D0001F93CF93DF938B01880F880F880F805C68
:1005E0000E944E01E801085F1F4F89910E94CC01D3
:1005F000C017D107D1F780E8DF91CF911F910F91FC
:100600000C944E010E94CB0282EB90E00E943402D7
:1006100083E00E94CC0183E00E94CC0183E00E9431
:10062000CC0180EC0E944E0180E00E94CC0181E070
:100630000E94CC018EEC0E944E0164E170E080E0EB
:1006400090E00C9447020E94CB0285EB90E00E9460
:10065000340282E00E94CC0182E00E94CC0182E060
:100660000E94CC0180EC0E944E0180E00E94CC01EF
:1006700088E70E94CC018EEC0E944E0164E170E09C
:1006800080E090E00C9447020E94CB028AEB90E05D
:100690000E94340282E00E94CC0182E00E94CC01E0
:1006A00082E00E94CC0180EC0E944E0180E00E941A
:1006B000CC0188E70E94CC018EEC0E944E0162E0E2
:1006C00070E080E090E00C94470261E00C946C04D0
:1006D00060E00C946C046AE00E943807292F30E136
:1006E000839FC0011124822B88BB08950E94EF00D4
:1006F00080E090E00895982F97708695869586956E
:10070000613009F44DC020F0623009F496C00895BC
:100710008130B1F028F0823019F1833089F10895E9
:100720004AB321E030E0B90102C0660F771F9A9505
:10073000E2F7CB01942F982B9ABB9BB3809547C0CF
:1007400047B321E030E0B90102C0660F771F9A95E8
:10075000E2F7CB01942F982B97BB98B3809549C0B3
:1007600044B321E030E0B90102C0660F771F9A95CB
:10077000E2F7CB01942F982B94BB95B380954AC098
:1007800041B321E030E0B90102C0660F771F9A95AE
:10079000E2F7CB01942F982B91BB92B380954BC07D
:1007A0008130C1F028F0823031F18330A9F1089511
:1007B0004AB321E030E0B90102C0660F771F9A9575
:1007C000E2F7CB018095942F98239ABB9BB38923A2
:1007D0008BBB089547B321E030E0B90102C0660F3A
:1007E000771F9A95E2F7CB018095942F982397BBBA
:1007F00098B389234BC044B321E030E0B90102C073
:10080000660F771F9A95E2F7CB018095942F982376
:1008100094BB95B389234CC041B321E030E0B901CA
:1008200002C0660F771F9A95E2F7CB018095942F4F
:10083000982391BB92B389234DC08130B9F028F041
:10084000823031F18330B1F108954AB321E030E0D4
:10085000B90102C0660F771F9A95E2F7CB01962F78
:10086000909594239ABB9BB3892BB2CF47B321E0D9
:1008700030E0B90102C0660F771F9A95E2F7CB010D
:10088000962F9095942397BB98B3892B88BB089596
:1008900044B321E030E0B90102C0660F771F9A959A
:1008A000E2F7CB01962F9095942394BB95B3892BB7
:1008B00085BB089541B321E030E0B90102C0660F65
:1008C000771F9A95E2F7CB01962F9095942391BBD1
:1008D00092B3892B82BB0895982F97708695869541
:1008E00086956130C1F5813091F028F08230D9F0E1
:1008F000833029F108954BB321E030E0B90102C003
:10090000660F771F9A95E2F7CB01842B38C048B366
:1009100021E030E0B90102C0660F771F9A95E2F737
:10092000CB01842B3AC045B321E030E0B90102C0CD
:10093000660F771F9A95E2F7CB01842B3CC042B338
:1009400021E030E0B90102C0660F771F9A95E2F707
:10095000CB01842B3EC08130A1F028F08230F9F029
:10096000833059F108954BB321E030E0B90102C062
:10097000660F771F9A95E2F7CB01809584238BBB96
:10098000089548B321E030E0B90102C0660F771F37
:100990009A95E2F7CB018095842388BB089545B3EF
:1009A00021E030E0B90102C0660F771F9A95E2F7A7
:1009B000CB018095842385BB089542B321E030E0CC
:1009C000B90102C0660F771F9A95E2F7CB018095B7
:1009D000842382BB0895282F277086958695869557
:1009E000813049F030F0823041F0833079F480B3C7
:1009F00005C089B303C086B301C083B390E002C0D1
:100A0000959587952A95E2F78170089580E008957D
:100A1000813041F028F0823039F0833039F0089588
:100A20006BBB089568BB089565BB089562BB0895CC
:100A30000F931F93CF9302E910E0C0E0F80161919A
:100A40008F018C2F0E947B03CF5FC032B9F7CF910B
:100A50001F910F910895813039F018F0823039F0EC
:100A600008958BB7806405C08BB7806802C08BB7D0
:100A700080628BBF08958130F1F018F08230A9F1C7
:100A80000895613049F028F0623061F0633069F018
:100A9000089585B78E7F02C085B7816085BF85B711
:100AA0008D7F2CC085B78E7F02C085B7816085BFE2
:100AB00085B7826023C0613049F028F0623061F070
:100AC000633069F0089585B78B7F02C085B7846075
:100AD00085BF85B7877F12C085B78B7F02C085B77A
:100AE000846085BF85B7886009C0623029F06330B3
:100AF00019F485B7806402C085B78F7B85BF0895E0
:100B0000813049F018F0823059F0089570936600F2
:100B10006093650008957093640060936300089586
:100B2000709362006093610008951F920F920FB658
:100B30000F9211242F933F934F935F936F937F9363
:100B40008F939F93AF93BF93EF93FF93E0916500D3
:100B5000F0916600E230F10509F00995FF91EF91FF
:100B6000BF91AF919F918F917F916F915F914F91C5
:100B70003F912F910F900FBE0F901F9018951F92CD
:100B80000F920FB60F9211242F933F934F935F93C1
:100B90006F937F938F939F93AF93BF93EF93FF9345
:100BA000E0916300F0916400E230F10509F00995ED
:100BB000FF91EF91BF91AF919F918F917F916F9135
:100BC0005F914F913F912F910F900FBE0F901F900B
:100BD00018951F920F920FB60F9211242F933F93E7
:100BE0004F935F936F937F938F939F93AF93BF9335
:100BF000EF93FF93E0916100F0916200E230F10524
:100C000009F00995FF91EF91BF91AF919F918F915D
:100C10007F916F915F914F913F912F910F900FBEF8
:100C20000F901F901895813059F038F0823071F094
:100C3000833091F483B780640BC083B78F7B02C08D
:100C400083B7806483BF83B7877F05C083B78F7BFB
:100C500083BF83B7886083BF83B7887F83BF83B731
:100C6000682B63BF089589B7816089BF0895909309
:100C700072008093710008951F920F920FB60F9229
:100C800011242F933F934F935F936F937F938F9391
:100C90009F93AF93BF93EF93FF93E0917100F09117
:100CA0007200E230F10509F00995FF91EF91BF91D3
:100CB000AF919F918F917F916F915F914F913F91F4
:100CC0002F910F900FBE0F901F9018951F920F92AB
:100CD0000FB60F9211242F933F934F935F936F930F
:100CE0007F938F939F93AF93BF93EF93FF93E09185
:100CF0006F00F0917000E230F10509F00995FF9165
:100D0000EF91BF91AF919F918F917F916F915F9183
:100D10004F913F912F910F900FBE0F901F901895FC
:100D20001F920F920FB60F9211242F933F934F9360
:100D30005F936F937F938F939F93AF93BF93EF9343
:100D4000FF93E0916D00F0916E00E230F10509F043
:100D50000995FF91EF91BF91AF919F918F917F91F5
:100D60006F915F914F913F912F910F900FBE0F9018
:100D70001F9018951F920F920FB60F9211242F9368
:100D80003F934F935F936F937F938F939F93AF9313
:100D9000BF93EF93FF93E0916B00F0916C00E23012
:100DA000F10509F00995FF91EF91BF91AF919F91E6
:100DB0008F917F916F915F914F913F912F910F9004
:100DC0000FBE0F901F9018951F920F920FB60F92A3
:100DD00011242F933F934F935F936F937F938F9340
:100DE0009F93AF93BF93EF93FF93E0916900F091CE
:100DF0006A00E230F10509F00995FF91EF91BF918A
:100E0000AF919F918F917F916F915F914F913F91A2
:100E10002F910F900FBE0F901F9018951F920F9259
:100E20000FB60F9211242F933F934F935F936F93BD
:100E30007F938F939F93AF93BF93EF93FF93E09133
:100E40006700F0916800E230F10509F00995FF9123
:100E5000EF91BF91AF919F918F917F916F915F9132
:100E60004F913F912F910F900FBE0F901F901895AB
:100E7000991B79E004C0991F961708F0961B881FEC
:100E80007A95C9F780950895A1E21A2EAA1BBB1B7B
:100E9000FD010DC0AA1FBB1FEE1FFF1FA217B30746
:100EA000E407F50720F0A21BB30BE40BF50B661F5C
:100EB000771F881F991F1A9469F760957095809520
:100EC00090959B01AC01BD01CF010895052E97FBC4
:100ED0001EF400940E947D0757FD07D00E9444072E
:100EE00007FC03D04EF40C947D0750954095309547
:100EF00021953F4F4F4F5F4F089590958095709586
:0E0F000061957F4F8F4F9F4F0895F894FFCF5C
:100F0E0014020002000200020002000200020002AF
:100F1E000002000E10101F1B1B1F000E11111F1BB5
:100F2E001B1F000004021F02040000040A040E1519
:100F3E00040A000000000000010100000000000093
:100F4E00000000000000000000000100020100008F
:100F5E000100676F0073746F7000626520726561C7
:040F6E0064790000A2
:00000001FF
